S0170000736F635F62746D6573685F6C696768742E7333373F
S21400000000000120054700000147000001470000EE
S2140000105F3500000147000001470000014700006F
S21400002001470000014700000147000001470000AB
S214000030014700000147000001470000014700009B
S21400004001470000697900000147000001470000F1
S214000050D1700000C1790000757900008D7900002C
S2140000606D790000014700000147000001470000CD
S214000070014700000147000001470000014700005B
S214000080014700000147000001470000014700004B
S214000090014700000147000001470000014700003B
S2140000A0014700000147000001470000014700002B
S2140000B0C5790000717900008D94000001470000AA
S2140000C0FD7900000147000079610000014700004B
S2140000D001470000014700000147000001470000FB
S2140000E001470000014700000147000001470000EB
S2140000F001470000014700000147000010B5054C0D
S214000100237833B9044B13B10448AFF300800123BE
S214000110237010BDC00000200000000030C90000A1
S21400012008B5034B1BB103490348AFF3008008BD75
S21400013000000000C400002030C90000154B002B52
S21400014008BF134B9D46A3F5803A00218B460F4609
S2140001501348144A121A0AF0B8F90F4B002B00D0B5
S21400016098470E4B002B00D0984700200021040033
S2140001700D000D48002802D00C48AFF300800AF0AE
S21400018075F92000290003F0AFFB0AF05BF900BF09
S2140001900000080000000120000000000000000031
S2140001A0C00000208C1B00200000000000000000A3
S2140001B037B50446684680E8060003C8251D85E86E
S2140001C005002373069B2361BDF81C30A382002321
S2140001D02360084B1A6812B91C6004E00A461168CE
S2140001E00029FBD114609888013080B2988003B053
S2140001F030BD00BFE006002007B503790193054A2D
S2140002000368009306CA02230830FFF7D1FF03B045
S2140002105DF804FB78A800000F4A10B41468A4F137
S2140002207E62A2F58432B2F5605F0B460FD2246B75
S214000230A4F17E62A2F58432B2F5605F07D224692B
S214000240064A0146A44600205DF8044B60474FF47A
S21400025081705DF8044B70472808E10F28070020DE
S21400026070B51C4D2A68A2F17E63A3F58433B3F5FE
S214000270605FE0B004D34FF40174204660B070BDF8
S214000280136B002BF7D05B6A4FF4C07269460020F0
S214000290984704460028F0D140F201262A68A2F1C9
S2140002A07E63A3F58433B3F5605FE4D2126BA2F1EC
S2140002B07E63A3F58433B3F5605FDCD2936A0021D6
S2140002C068469847B042E9D040F20323984218BFE8
S2140002D00446D2E72808E10F154B0228D3F88031F0
S2140002E013D0032814D0012814BFDBB2C3F30723AE
S2140002F01B0323F47042B1B9BAB90E49CA6E22F490
S21400030070421343CB6601207047C3F30743EFE701
S2140003101B0EEDE70749D1F8E02022F470421343A4
S214000320C1F8E030EFE7002AF4D00020704700BFA5
S214000330B081E00F00300E40304B1A6FD96CC90701
S21400034002F0070242D5012A40D9132851D91438A1
S21400035013288CBF102308232849013BCA6C1803B6
S21400036022F47F4240EA03231343CB64244BCA6C37
S2140003701B88C2F303222833013202EB820003EB10
S2140003805303B3FBF0F3C86C013B072B20F0EE6081
S21400039028BF072340F4801040EA0363CB64194B60
S2140003A0B3F90030002B10DB2833500800EB420274
S2140003B003EB5303B3FBF2F30A6D072B28BF0723A7
S2140003C022F0700242EA03130B657047DB6CD90714
S2140003D006D4012A04D809280BD90A380928B8E710
S2140003E0064BDB6C13F00103B6D0012A03D827288E
S2140003F0AFE70423B0E70023AEE700BF00300E40AF
S214000400F6060020F806002042EA032340F2011216
S21400041093422BD0B3F5817F08D2012B1DD030D369
S214000420B3F5807F31D0002213461CE040F2012253
S214000430934222D006D8B3F5007FF4D1174BD3F8F9
S21400044070310DE0B3F5407F23D040F20132934285
S214000450E9D1124BD3F878310BE0104BD3F8743156
S214000460C3F30722DBB203600A6070470B4BD3F876
S21400047074311A0EC3F30743F5E7084BD3F8783107
S214000480EEE7064BD3F86C31EAE7044BD3F86C3151
S214000490EFE7024BD3F87031EBE700BFB081E00F17
S2140004A0044B1B685B0603D4034A1368002BFCD17D
S2140004B0704700BF3C300E40C800C6430E4B30B5F8
S2140004C00E4C5B68C9B2002304EBC30215798D425B
S2140004D003D154F8335085420BD20133052BF3D1A8
S2140004E0032205494B6823F0407343EA02634B60DE
S2140004F030BD5279F5E700BF00000E4070A700003F
S21400050038B5054C41F67133256C2364FFF7D6FFEA
S2140005100DB10023236438BD00000E400C4B9842FA
S21400052010D90C4B984210D9022201230A490B60BD
S2140005300A49D1F8003123F0807343EA0263C1F818
S2140005400031704700221346F0E70122FBE700BFA8
S2140005500048E8010090D0034000C84300400E4029
S214000560202A0B681EBF4FF0FF3191408B4359087D
S21400057001F055315B1A03F033319B0803F0333337
S2140005800B44017803EB13130A4403F00F334FF0C8
S21400059001314B43A2EB13630370704773B502AD92
S2140005A0002605F8016D0446011D1B222846FFF7AC
S2140005B0D7FF60689DF80730B3EBD06F03D120F00B
S2140005C0784002B070BD28461B2204F108018DF861
S2140005D00760FFF7C5FFA0689DF80730B3EBD06F44
S2140005E001D1C043EBE74FF0FF30EAE703684BF278
S2140005F09A22B2EB134F10B5044611D19BB2012BD1
S2140006000ED1FFF7CBFF431C0AD0E0684FF6FF720F
S214000610030C93420AD180B2C01A18BF012010BD45
S214000620236801330CBF03200420F8E70220F6E716
S21400063037B501F10C040546436901A9012220469D
S214000640984702A9BDF8043041F8083D0122AB697D
S2140006502046984703B030BD2DE9F043054689B0E3
S2140006609946036908460E461746984704460028EA
S21400067067D1D9F804304FEA53285FEA580804F1E6
S214000680010366D199F8032099F802308DF80480AA
S2140006901203DB0203F4006302F480521A43B9F833
S2140006A000306403C3F30A03134404F460441C4498
S2140006B02A4B03931B2227F0784302A901A8029332
S2140006C0FFF74EFF9DF80420029B08A8FF4343EA6D
S2140006D0C26300F81D8D1B2201A927F078470493FA
S2140006E00197FFF73DFF9DF80320019B08A943EA09
S2140006F0C2636FEA044405936FEA14444FF0FF3375
S21400070041F8044D06930122AB6906F110009847A4
S214000710AB690446012205A906F108009847AB69B3
S214000720002818BF0446012204A9301D9847AB696B
S214000730002818BF0446012203A93046984750B93E
S2140007401CB131462846FFF773FF204609B0BDE8C6
S214000750F0831C4691E70446F3E700BF01009AB217
S214000760036803F07F03012B03D8406820F07C4029
S2140007707047072B8CBFD81F002070472D4B41F6C3
S2140007807132196C70B51A642B4A556852689A68AB
S21400079042F001029A6001221861DA60DA695207B3
S2140007A089B2044608D59A6822F001029A6009B117
S2140007B000221A64214811E00222214DDA601A460E
S2140007C0DE69F60700D555B9D36913F002030BD0DE
S2140007D0936823F00103936019B91A4870BD013D70
S2140007E0EEE700231364F8E73DB9936823F00103AE
S2140007F093600029F1D01564EFE7956825F00105B0
S214000800956001B11364104B5B6B1B0E0A3303F04B
S2140008101F03012202FA03F323F003031844A04245
S21400082001D10020DAE754F8043B0133F7D007483B
S214000830D4E700BF00000E4000300E4021E000F07C
S2140008408096980024E000F0B081E00F0EE000F003
S21400085070470000034B9A6822F001029A6000225B
S2140008601A64704700000E40064B5A685B68064BD9
S21400087041F671321A649A6822F001029A600020EA
S214000880704700BF00300E4000000E40F0B58E46A8
S2140008904168002939D0076800243E4657F834508E
S2140008A0C5F3130C013504F1010401D0E64537D039
S2140008B08C4206F10806F1D13968013128D007F1DB
S2140008C00806002503E057F83510013121D0013520
S2140008D0A542B44606F10806F5D1032B15D00768E5
S2140008E03968C1F30751032912D007F1080600241E
S2140008F005E057F83410C1F30751032909D0013435
S214000900A542B44606F10806F3D101230372F0BDF2
S214000910BC46CEF3130E4EEA0353CCE90032F0BDCC
S2140009204EEA0353C6E90032F0BD30B544680023F2
S2140009304FF0FF329C4202D10023037230BD0168A3
S21400094001EBC30541F833206A600133F2E700008B
S214000950EFF3108272B6034B1A6003680846DB6832
S214000960184700BF840D002070B5002586B00446E9
S2140009700562E369AB4202D8206A06B070BD666CB9
S2140009802068E36B05225B6901A906FB0500984712
S21400099001A8FFF72BFE01289EBF236A01332362BE
S2140009A00135E6E7F7B507460E460D467B6C86EA48
S2140009B005045B421C40A5EB060001D003B0F0BD69
S2140009C0FB6B01225B6901A928469847019B01330E
S2140009D001D10435EAE72046F0E7F0B5002587B0F8
S2140009E004462E46E369B34202D8284607B0F0BD57
S2140009F02368676C07FB0637E36B05225B6901A972
S214000A003846984701A8FFF7F1FD012809D807F1F5
S214000A1014012046FFF7C6FF636C143B834208BFF1
S214000A2001350136DEE7F0B5046887B006460025D6
S214000A300C1B416CB4FBF1F4F3693068776C5A1EFA
S214000A40954206D3716C306801FB0400143007B081
S214000A50F0BD0134B4FBF3F103FB1144F36B052244
S214000A605B6901A907FB0400984701A8FFF7BEFDD4
S214000A700128E7D90135DFE72DE9F04F14469946FE
S214000A80C36B89B007460E465B696068DDF8488030
S214000A90012205A99847FB6B01225B6904A9304631
S214000AA09847059B5A1C06D10020A0756075A36068
S214000AB009B0BDE8F08F0121A175217E049A04EBF0
S214000AC0C1014FF0000ECE61A1F820E0606802F090
S214000AD07F05B042C2F3D31CE9B20CD14FF0FF330E
S214000AE0C4F800C02175A360237D043B022B21D8E7
S214000AF00020A075DCE720686045207D18BF84F8DC
S214000B0016E0884218BF002003F07F0318BFA075C8
S214000B10012B8CBF0020012001298CBF0021012160
S214000B2088421CBF0021A175012D00F2D180012B47
S214000B30DAD9D0E002F07F02012A0FD8FB6B02223E
S214000B405B6906A93046984706A8FFF709FE237D8D
S214000B50032B68D8DFE803F06262040904A8F4E710
S214000B60227E04EBC202CC211184684AD35C049D29
S214000B7088F80030237E05F07F02012A04EBC303C9
S214000B8094BFC5F3C1650025012A83F82250B3F847
S214000B9020A000F2A380FB6B02225B6906A90DF180
S214000BA0200B3046984700230BF8113D202206A95B
S214000BB05846FFF7D5FC1A2207A9FFF7D1FC9DF887
S214000BC00F30079AB3EB926F0CBF012300236375B7
S214000BD00822637D03B9A375A37D9BB1BAF1000F0C
S214000BE015D07B6CB018594286EA000C1CEA010F3F
S214000BF01CBF0021A175591E01405B1A9A4584BF8F
S214000C000023A37594F816B0BBF1000F30D095B949
S214000C10E37D002B75D14FF0000B16E0227E04EB2F
S214000C20C2021084A1E7227E04EBC202062B1084C7
S214000C309BD901239BE794F819B00123E375BBF118
S214000C40000F24D19D4228D165762AF00300304457
S214000C5010441AF0030F7B6C18BF04305B4286EA20
S214000C600002134203D031463846FFF7DCFEA06090
S214000C70A27D12B1236953442361237E012B0ED833
S214000C8001332376B9F1000F0CD1A07D10E7012DBA
S214000C9037D0032D08BFA376BDE79B46D5E70023D4
S214000CA0A375F2E7002AF0D0E37D002BEDD0BBF170
S214000CB0000FEAD1032DE8D0A1684B1CE5D0CDF893
S214000CC00080012322463846FFF7D6FEA075DCE7F3
S214000CD0012B3FF609AF0023A37505E700231B226F
S214000CE004A906A88DF81830FFF73AFC9DF81830CE
S214000CF0049AB3EBD26F0CBF012300236375042262
S214000D0067E7A27D4FF0010BB4E700BF7AA60000AC
S214000D1013B50C46002121760093616813462246DF
S214000D20FFF7AAFE18B1E37D03B1A07EA075A07DF3
S214000D3002B010BDF0B5054687B00026EC69013C50
S214000D40B44203D80C46204607B0F0BD01B14C1E95
S214000D506F6C2868EB6B05225B6901A907FB040032
S214000D60984701A8FFF742FC0128ECD90136214636
S214000D70E4E7F0B50446466CE36B00685B6987B051
S214000D800D46052201A906FB0500984701A8FFF7B6
S214000D902DFC012804D801A8FFF700FC07B0F0BD21
S214000DA029462046FFF7C6FF676CE36B06462068B9
S214000DB05B69052201A907FB0600984701A8FFF713
S214000DC0EDFB431CEAD0B54238BF0130E6E7436985
S214000DD0416C80691439DA1DB2FBF1F2013203EB83
S214000DE0C202043000EB4200DA1CB2FBF1F203EB65
S214000DF0C2030333B3FBF1F3023301FB0300704776
S214000E00094B30B5196C5C6C0022234642EA01049B
S214000E10220C82701A0A210AC2701A0C1B0E047069
S214000E2041700271437130BDB081E00F214BD3F8A1
S214000E30F82102401CD170B4D3F8FC51D3F80062FC
S214000E4003F5FC74641BA410022C12D0032C29D0CA
S214000E50012C1AD0184A52682A6005F10C02686004
S214000E60C3F8FC21A96033680C33336070BC70474C
S214000E707047114A1C1D52682A6068600422196077
S214000E80C3F8FC41326070BC70470B4C1A4664686D
S214000E902C6042F8080B08205960C3F8FC2130602B
S214000EA070BC7047044C6468A960C5E90040C3F88C
S214000EB0FC31E7E710150020001000E0837DDB071B
S214000EC001D5808A7047D0E901239B1A44BF828AE5
S214000ED09B1898B270470000044B5A6D22B95865AB
S214000EE0A3F85810012070470020704780060020A5
S214000EF0D0B50C4CE38C0A20584309F007F8064698
S214000F00A08C0F4609F002F80022074B09F068F89B
S214000F1002460B463046394609F08CF909F072FA5B
S214000F202083D0BD800600200000F43F084A10B59C
S214000F30146840F2E243584303FB0141536800F54E
S214000F40807001EB500118441160506010BD00BF66
S214000F508006002070B500228AB01346D91003F030
S214000F600704415C2141CC0741BF0AA98918013218
S214000F7001F8283C0133252BF0D10E4D0023D91063
S214000F8003F00704415C2141C90707D5E91881F839
S214000F902A300133252BF2D10AB070BD0AAE93FB7E
S214000FA0F2F102FB11313144EC1811F8286C84F888
S214000FB02A60EEE780060020024B986C80B2800222
S214000FC0704700BFB081E00F0C4B10B50C4CE41A14
S214000FD00C4B1C4424F4FF6424F00704FFF7ECFFDA
S214000FE0A04202D80024204610BD2046FFF7FEFA95
S214000FF00128F8D904F50064F0E700BF10000020CF
S214001000C00000207BD100007FB50E4B02466D4627
S21400101003F11006186859682C4603C40833B34217
S2140010202546F7D1531E04A90F3211F8014D13F8C7
S214001030010F844204D19342F7D1012004B070BD61
S2140010400020FBE748A6000070B5154D286810BBC9
S214001050144B154CE41A154B1C4424F4FF6424F07E
S2140010600704FFF7A9FF844214D2666BA6B1FFF708
S214001070A3FF864210D2FFF79FFF06F1400383428C
S2140010800AD83046FFF7C0FF30B1F36933F00803E3
S21400109002D02C60286870BD04F50064E1E700BF4C
S2140010A04001002010000020C00000207BD100007E
S2140010B0BFF34F8F0549064BCA6802F4E06213433C
S2140010C0CB60BFF34F8F00BFFDE700BF00ED00E031
S2140010D00400FA050A4B1A68A2F17E63A3F584336E
S2140010E0B3F5605F09D2126BA2F17E63A3F5843379
S2140010F0B3F5605F01D2D36B184740F2011070471A
S2140011002808E10F0D4B10B41C68A4F17E63A3F50C
S2140011108433B3F5605F0BD2246BA4F17E63A3F532
S2140011208433B3F5605F03D2A36B5DF8044B1847B6
S21400113040F201105DF8044B704700BF2808E10F2D
S214001140064B1A68A2F17E63A3F58433B3F5605F9D
S21400115001D2536A18470020704700BF2808E10FE5
S214001160114B196801F1704303F5F813B3F5006FDE
S2140011700CD20E4B1B68A3F17E62A2F58432B2F548
S214001180605F03D209680A4A914203D000230370C5
S214001190836070471968074A9142F7D101220270AE
S2140011A09A6842609B69F3E72800E10F2808E10F80
S2140011B0AD1007B007B0CD5E10B50C4630B9044888
S2140011C0FFF7CEFF034B23600423A380002010BD4F
S2140011D09C010020A001002010B508B3114B1A682E
S2140011E0918881421CD39988814281BF012112686F
S2140011F099809A6099889A6800242AB904B19A60FE
S2140012004FF6FF71998009E0884204D001311268D8
S21400121089B20124F1E70CB198809A60104610BD9F
S2140012200022FBE7E806002037B50D461446FFF718
S214001230D3FFD8B10369828A63B14FF6FE718A4242
S21400124008D100200090ADF804006946984738B1F0
S21400125003B030BD2B602280286848B92080F7E7AD
S214001260009B2B60BDF804302380F5E70120EFE7F4
S2140012700020EDE737B50D461446FFF7ADFF70B119
S214001280036973B1818A4FF6FE72914209D10095C7
S214001290ADF8044069460120984703B030BD0120F0
S2140012A0FBE70E20F9E7000037B50379124A03334F
S2140012B00446019300F14403009306CA0223143047
S2140012C0FEF776FF228A0192E268237A009204F102
S2140012D02C0094E80600FEF76BFF237AA4F845007E
S2140012E0054684F844302279216804F1470009F065
S2140012F0E1F8284603B030BD70A8000070B50E4C6B
S2140013000E4B04F1100206460D4692E80300183410
S21400131083E803001846FEF76FFF094B94E80300C6
S21400132002221A7283E80300DE601D821846BDE8BA
S2140013307040FFF7B9BF00BF48A60000A814002001
S214001340C804002010B5044644EA010313F0030362
S214001350084609D1934201D1002010BD54F823104D
S21400136040F823100133F5E79200214609F0A2F871
S214001370F2E72DE9F041054616468846FFF79EFD42
S214001380AB8A181A80B2864228BF064637465FB92F
S2140013903EB1D5E901329A4202BFAB7D43F001036C
S2140013A0AB753046BDE8F081AB8A2C68A8681C4453
S2140013B0241AA3B2BB428CBF3C46A4B22246414686
S2140013C009F078F8AB682968AA8A23440A44A0443E
S2140013D09342A7EB0404AB60A7B228BFA960D6E788
S2140013E070B5044615461E4611B3FFF767FDA38A7F
S2140013F0181A80B2012829D9E37D63B1E368628AAE
S2140014001A70120A07D02068A18A013301448B4261
S21400141028BF0346F4E700236382A368E360022242
S21400142004F112012046FFF7A4FFE37D0133E375C4
S214001430324629462046FFF79CFF638A03446382B0
S214001440E37D13B9238A0344238270BD0020FCE7A2
S2140014502DE9F041164605468846FFF72FFD8642E1
S21400146028BF0646B6B237464FB92EB1AB7DDA076F
S21400147044BF23F00103AB753046BDE8F081AB8A6C
S2140014802C6869681C44641AA3B2BB428CBF3C46F5
S214001490A4B22246404609F00DF86B682968AA8A6D
S2140014A023440A44A0449342A7EB04046B60A7B20B
S2140014B028BF6960D8E770B51E46038A04461546FD
S2140014C0EBB9C27DDAB10123013A0B70C27500F1A7
S2140014D010010222FFF7BCFFE37D9BB1228AB242D5
S2140014E028BF324629462046FFF7B2FF238A1B1A3A
S2140014F02382E37D13B9638A1B1A638270BD0023BF
S2140015000B70EBE7638A2382E8E7000070B50D46B0
S214001510A8B9FFF799FD446BFFF796FD58B123462F
S214001520084C03F1400618685968224603C208337F
S214001530B3421446F7D1044B2B600423AB80002043
S21400154070BD00BF440100206401002038B5202291
S21400155004460D460C30002108F0B7FF00234FF07C
S214001560FF32C4E90025A375A260E3756376A3760F
S214001570237638BD2DE9F04F0E468BB00446002585
S2140015804FF0FF311046C6F3130917469A468DF8FA
S2140015901350FFF7DBFF4E456BD1E1682B468B42BD
S2140015A00DD0A26802EBC30052F83320551C0DD0B4
S2140015B0C2F31302914509D141684D1C08D1237C22
S2140015C0002B58D147480BB0BDE8F08F0133E6E753
S2140015D03846FFF7BBFF0DF11303012239462046BC
S2140015E0FFF796FB0028EAD09DF813308AF8003003
S2140015F00020E8E72368ED1A636CB5FBF3F542E0DC
S2140016004046FFF7A3FF0DF11303029A414620461A
S214001610FFF77EFB8646D8B1B11C03D0D8F8003061
S214001620B34215D1304A9DF813308AF8003002F1E3
S214001630280B3B469446BCE80300DC45186059601E
S214001640624603F10803F5D1DCF800001860F346A3
S214001650D8F8081032E0BBF1000FB3D04E45C7D122
S2140016609AF800307A68314604F10800FFF70EF960
S214001670BEE7B31CA3D1E56A681CBBD1616A2046ED
S214001680FFF758FB0546B31C18BF0123DFF8588048
S2140016900293636A626C0393236802FB053BE36B69
S2140016A005A95B6905225846984705A8FEF79EFFE0
S2140016B00BF11403019319464FF0000B4A1C05D09A
S2140016C0636C019A5B424A40134299D029462046F1
S2140016D0FFF730FB039BAB42BDD0BBF1000FBDD183
S2140016E00546D6E70BE000F0A00E00202DE9F04FEF
S2140016F04FF0FF330025894600F108064FF6FF71CC
S21400170087B00446C0E90913C36205620563304624
S214001710FFF70BF92046FFF727F900285BD1D4F82E
S21400172024804FF6FF7BD84514BF4546002500278A
S214001730E3699F4252D32046FFF716F9002833D1BB
S214001740B44D2046FFF749F924E12368E26B606C4C
S214001750576901A9052200FB0530B84701A8FEF726
S21400176045FF0128074603D0C31EDBB2012B12D863
S21400177029462046FFF7FDFA012F2168676C0246CE
S21400178008BF0132434607FB0511E06BFEF764FF16
S2140017902046FFF7E9F80135E3699D42D5D3204698
S2140017A0FFF7E2F80028BAD000254FF6FF73C4E929
S2140017B008534FF0FF38C1462F46E3699F423ED399
S2140017C0A5EB0805012D5ED8636A4FF6FF729342BB
S2140017D06ED1914DB5E704F14008DDE7636CE26B2E
S2140017E02068D2F814C001A9052203FB0500E047D3
S2140017F001A8FEF7FBFE02280FD0D84515D109F147
S2140018000102606C216804F1400300FB0511E06BE7
S214001810FEF722FF2046FFF7A7F8E36901350137F8
S214001820B5FBF3F203FB125582E729462046FFF785
S214001830A0FAB0F1FF3F08BF4846421CE1E7636CE0
S214001840E26B2068D2F814C001A9052203FB07004A
S214001850E04701A8FEF7CAFE824601A8FEF79EFEF4
S214001860BAF1010F0DD84845236A38BF6762804534
S21400187003F1010328BF80468542236238BF054630
S2140018808146013799E74FF6FF7363620025E369E7
S2140018909D4299D2676C2068E36B05225B6901A9BB
S2140018A007FB0500984701A8FEF778FE0135EEE72E
S2140018B0E26B676C2068556901A9052207FB0300E7
S2140018C0A84701A8FEF76AFE616C2268636A534D5A
S2140018D001FB03231433A3624FF0FF33E3622A466F
S2140018E00DF103036FF001012046FFF743FE0028C9
S2140018F054D1AB68E362E56A20462946FFF752F802
S214001900206320B9E16A2046FFF78DF8E062294699
S2140019102046FFF788F80546A36A9D4240D16369D2
S214001920656C2046A5F11402DD1CB5FBF2F503EB51
S214001930C5050335B5FBF2F5FFF74FF8AB1C98422B
S21400194081463FD2616A2046FFF7F4F903358046A8
S214001950012604F1400A731E994512D82368676C65
S21400196007FB0837E36B05225B6901A938469847F1
S21400197001A8FEF713FE534602463946E06BFEF713
S2140019806BFE41462046FFF7D5F90136B542804644
S214001990E1D1234D284607B0BDE8F08FA36AA9E73A
S2140019A029462046FEF7FEFF236B034429460746DA
S2140019B023632046FFF737F80546002FACD1C4E96D
S2140019C00B07A9E73046FEF7B0FF164DA16AE36A9B
S2140019D0994201D04B1C01D10025B2E62846FFF7FC
S2140019E0B5FD0DF10303012229462046FFF790F9C5
S2140019F030B19DF80330D5E900123046FEF746FFB9
S214001A00A9684A1CE3D169682046FFF70CF801462E
S214001A10DDE700BF03E000F016E000F0740E0020E3
S214001A2013E000F0CC0E00202DE9F74F9300019351
S214001A303D4B019A1F6C41F671341C643B4C656843
S214001A4064689C6844F00104BFB29C604FEA920E42
S214001A508C4600264FF001084FF00809B64501D81D
S214001A60002327E0324C00EB8605D3F81CA01AF0C2
S214001A70010F05D014B96FF002031BE0013CF4E738
S214001A80002CF8D01D61C3F80C80DC6914F0040447
S214001A900ED1C5F30A05C5F50065AD08AEEB060A1E
S214001AA0554528BF5546E5B92E440CEB850CD5E7C1
S214001AB04FF0FF331C4CA56825F00105A5600FB15B
S214001AC0002525645A1C22D02BB31A4820E0BAF110
S214001AD0000FD0D0D3F81CA01AF0020F14D1AC42DD
S214001AE0E2D05CF82420DFF848A09A610134C3F8FD
S214001AF00C90D3F81CB01BF0010FE8D0BAF1000F21
S214001B00B9D00AF1FF3AF4E76FF00103D2E70A48CA
S214001B1003B0BDE8F08F019A08F0E8FC00280748FB
S214001B2008BF0020F4E700BF00000E4000300E4063
S214001B308096980024E000F021E000F010E000F02D
S214001B402DE9F04385B088466946044681E80C00D6
S214001B500C9EBDF83470FFF73FFB4FF6FE79054646
S214001B600DB1444505D94FF6FF74204605B0BDE8D3
S214001B70F0832B7A9DF804209A421ED1009968685B
S214001B8008F0B4FCC8B9002EEFD02B69AA8AA3B11E
S214001B904A4509D10290ADF80C0002A9984760B9F1
S214001BA0029BBDF80C2043B1974206D13A4619462F
S214001BB0304608F09BFC0028D7D001342D68A4B22C
S214001BC0CEE70000F0B5354C87B011464FF486706E
S214001BD01F461646FFF72AF9236925462BB94FF408
S214001BE08370FFF723F907B0F0BD002F08BF082E5B
S214001BF021D101AA0321206803F072F963686061AD
S214001C005B7A23769DF80430DA1F53425341627E96
S214001C1063F30002039BE361BDF8063062766383DC
S214001C2004F1180123690220984701220021206848
S214001C3003F05EF9D7E7002F08BFB6F5000F03D113
S214001C40002101209847CEE706F4A0420023134364
S214001C5009D04FF480714FF48170FFF7E7F82369DD
S214001C6000210320EEE706F4A0620023134308D009
S214001C7001214FF48170FFF7D9F82B690021FF206E
S214001C80E0E706F020520023134319BF012140F27B
S214001C90011031464FF48370EDE700BF00130020BB
S214001CA01FB502238DF80630064B5A8B5969186803
S214001CB00332ADF804206A4603F016F9009805B022
S214001CC05DF804FB0013002008B500214FF4857072
S214001CD0FFF7ACF8044B00221A61186801220321B2
S214001CE0BDE8084002F0BABD0013002013B50D4B46
S214001CF00D4C1B88ADF804300128ADF8003004BF49
S214001D0002238DF8043001A908BF0423206808BF09
S214001D108DF8003003F048F86946206803F05CF858
S214001D2002B010BD68A600000013002037B5124CA4
S214001D30437A606000220092D0E90021206803F018
S214001D4043F9238CDB050CD563680C4D1A7A297889
S214001D50914206D0012A06D0022A08D063681B7A70
S214001D602B7003B030BD206803F004F9F6E7206856
S214001D7003F006F9F2E700BF00130020DD0600209E
S214001D80F0B51A4C1948637A0133DBB2272B85B0BD
S214001D9088BF25236372FFF7C9FFE768657C627D0D
S214001DA0134C144920684FF40073023203F078F89D
S214001DB06368114A5B7A05F001052846D65CFFF792
S214001DC095FF0022012300928DF80C30314602ABBD
S214001DD02068029702F046FD28B1FFF775FFFFF76F
S214001DE0CFFF05B0F0BD054B2361FAE7DC0000200D
S214001DF000130020F000002045A800007529000010
S214001E0038B50D4611462C68A41A2246014408F03F
S214001E107CFB2C6038BD00002DE9F0470C46484995
S214001E20484B0D68471B48481B1A4848034423F490
S214001E30FF63924623F00703454A9F421760884691
S214001E40914677D355443D44FFF7BEF808B9FFF7EF
S214001E50B3F8854271D8D8F800000AEB0005B5F54E
S214001E60806F03D93B4B82221A7061E03A4E52468D
S214001E702146304408F01EFB384BC8F800501A685C
S214001E801AB9332D54D9726B1A601B689F4207EB40
S214001E9005041DD8A3421BD203F11002A24247D864
S214001EA0DB1B1E442E4A334606F1100153F8040B82
S214001EB042F8040B8B42F9D12948FFF7A5F810B970
S214001EC0244B8422D0E71022FF21304608F0FDFA8A
S214001ED0244E2548336805F00305641B044053B9B7
S214001EE03840C0F500612144FFF7F4F8346040B193
S214001EF0184B8522B8E79C4203D9E11A03F5006027
S214001F00F2E7D8F800201449D9F80000521BFFF772
S214001F10F9F8D8F80020D9F800300949521B0446D1
S214001F2013440D48C9F80030FFF76AFF002CDFD1D4
S214001F30BDE8F087074B872296E7064B832293E798
S214001F40F8120020C0000020100000207BD1000006
S214001F50300B00202D0B0020F80E0020BC0D0020BA
S214001F60AC0D0020FC12002000F8FFFFEFF31080FD
S214001F7072B670470B4A536911699B0003F03C0325
S214001F80C1F381110B438370136903F03F03437061
S214001F909369D26903F0F003C2F30312134303708C
S214001FA0704700BFD0FF0FE013B5044601A8FFF747
S214001FB0E1FF9DF80630238040F201136380064B54
S214001FC05B6B1B0E0A33012203F01F0302FA03F3B6
S214001FD00020636002B010BDB081E00F054A064BDA
S214001FE01B68136F23F007031843044B1067188809
S214001FF0FEF7A2B900300E408009C643F406002062
S214002000EFF3108072B6704700B962B670470000F2
S21400201010B5034CA01DFEF79DFF0023236010BDE6
S2140020208C0D002010B5094CB4F80710A079FEF707
S2140020307DFFA368064AB4F80D10D184C3F30F23BE
S2140020409384FEF755FF0023236010BD8C0D0020FF
S21400205080060020034B044A9979117500221A6005
S214002060704700BF8C0D002080060020FFF7CCBF15
S21400207008B5C36800209847024B1868BDE80840BA
S214002080FFF7C2BF840D00202DE9F04FB84F87B090
S2140020903B7801920646894603F0FF0B002B35D1AC
S2140020A0FEF792FF8246FEF787FFBAF1000F00F0B8
S2140020B00A81B04BD3F80080C3F800B0AE4B93F85B
S2140020C03410A0EB0A051C4600297BD01A689245FE
S2140020D040F0F9805A68954240F0F5809968A74A22
S2140020E0914240F0F080DA68062A40F0EC805969A8
S2140020F040F26C72914240F0E680D96BA04A914261
S21400210040F0E180C3F818B001233B709A4C94F875
S2140021103430002B00F0D7809A4D012104F13C00AA
S21400212046F48028FEF714FC04AB2A4641462046B7
S214002130FFF720FA0746002840F0CC809DF81030C4
S214002140032B00F0C780022B00F0C7802E69E06BDF
S214002150FFF78EFF002F40F0B680019B1B78B3423E
S214002160C0F0B18094F834300093002B00F0AB80C0
S21400217001218548FEF7ECFB0DF10B03814A7E48F2
S2140021804146FFF7F7F9074680B99DF80B30012B5B
S21400219040F004812B69B34240F00681D5F804A0D4
S2140021A0B346E36BBBF1000F40F09980E06BFFF79E
S2140021B05FFF002F40F08780019B1E70009807B0DD
S2140021C0BDE8F08F402203F11000D3F838B008F0D5
S2140021D07CF940F26C736361684BA3600623E3608E
S2140021E004F10800C4F838B0C4E900A5FEF79DFB6A
S2140021F0634BE36304F14000FFF7D6FE002867D187
S214002200626C002A64D06368B3FBF2F3E36194F86F
S2140022104330002B57D0656C002D54D0E369002B5B
S21400222051D02268B2FBF5F305FB1323002B4AD1ED
S214002230D4F804A0BAFBF5F305FB13A3002B42D198
S2140022404D48FEF7C4FD82453DD3636940F63472BF
S214002250CC3B934237D8B5F5007F34D303214A48A8
S214002260FEF776FBE36BD4E900011B689847E36B47
S2140022700546DB6802209847D5B941463E48FFF739
S21400228035FA424B9842054604D141463A48FFF794
S2140022902DFA054665B9636C3748A3F11408236A1E
S2140022A003FB08F8FEF793FD394B804538BF1D4603
S2140022B0B5FA85F35B09E06B84F83430FFF7D8FE97
S2140022C0002D3FF421AF019A00231370009375E7A9
S2140022D000239BE700262F4F39E7042637E75B6984
S2140022E0012203A9504698472649039B0968C3F371
S2140022F0D312914250D103F07F03012B2BD903A8B0
S214002300FEF72EFA4FF00408584528BF58468208B4
S214002310D0440546ABEB000B0AD0E36B49465B693D
S2140023204046984725F00303984405F00305994472
S2140023305DB1E36B01225B6904A9404698474846B5
S2140023402A4604A908F0B6F8A94451460A48FEF7FA
S2140023506AFB824625E7E36B02225B6904A95046C6
S214002360984704A8FEF7FCF94FF00808CCE700BF32
S214002370F00D0020BC030020F80D0020C00D00204A
S21400238028A80000480E0020340E002013E000F0BD
S21400239002E000F00BE000F0044F07E7044F054AA8
S2140023A0022B08BF174601E7034FFFE622E000F0C6
S2140023B00BE000F00CE000F011E000F02DE9F04139
S2140023C00D4F06460D4614460CB9BDE8F081EFF3F6
S2140023D0108872B623462A4631463846FFF700F87C
S2140023E003464046FFF710FE002BEDD0E41AA4B2D9
S2140023F01D440026E8E700BF680C002013B5002344
S21400240001F10804ADF80430ADF8060021461A467E
S214002410083151F8100C70B90BB1ADF80420042245
S2140024200DEB020101200834FFF7C8FF54F8101C1A
S21400243039B902B010BD51F80C3C1A4492B20123CF
S214002440E6E734F80C2C0020EDE700007FB500230B
S2140024500130CDE90101CDE904336946044B009310
S21400246004200392FFF7CAFF07B05DF804FB00BF25
S2140024708A0100200E4A1368A3F17E63A3F5843315
S214002480B3F5605F10B50ED2EFF3108072B609494F
S21400249000240B780C70FFF7B7FD3BB11368BDE85E
S2140024A010401B6A18474FF4817010BD1846FCE7B1
S2140024B02808E10F880D002001282DE9F34740F099
S2140024C042818B88012B40F040810B681B7813BB40
S2140024D0A04AA14C1360A14A1360A14A1360A14A06
S2140024E01360A14A1360A14A1370A14A1360A14A5F
S2140024F013602278022A01D1FFF7BCFF0123237064
S2140025009D4B00241C709D4B1C709D4B1C702046E0
S21400251002B0BDE8F087032B40F00281984B8E4E48
S2140025201C78002C52D13378002B00F0ED808F4BB6
S2140025301B78082B40F08480864B1868984688B92C
S214002540904D2B68A3F17E63A3F58433B3F5605FEB
S21400255057D34FF4017041F20804A0420CBF862402
S214002560802433E010F003071ABFC7F10407FFB258
S214002570274600EB070ABAF5806F00F2CB80824B45
S2140025803A46FF21184407F0A0FF794A7F491368AE
S2140025900968C8F800A00AEB03008842914600F2DA
S2140025A0BD806E4A15681D445544DFF8BCA125F46D
S2140025B0FF65DAF8000025F0070585420BD9291AD1
S2140025C000F50060FEF786FD18B185240023337001
S2140025D09DE7CAF80050D8F80010D9F80000FDF7BB
S2140025E01BFED9F80030D8F800205A491344054697
S2140025F0DF1B6548C9F80070FFF702FC002D9FD06E
S214002600E3E7FDF72DFE0028A5D12A680190A2F188
S2140026107E63A3F58433B3F5605FD6D2126BA2F166
S2140026207E63A3F58433B3F5605FCED29369012150
S21400263001A898470028C8D1504B01221A70C5E758
S214002640002B63D04C4B1B78002B61D0494F3B6866
S21400265043B9444B4E4918681022FEF753FD002834
S214002660B4D0B2E713F003021CBFC2F10402D2B228
S21400267003EB0208B8F5806F4CD84648FF21184493
S21400268007F023FF444A454BC7F800809B1A444A8C
S2140026901344334A23F4FF63156823F00703AB4261
S2140026A0914639D8A844FEF78FFC08B9FEF784FC9B
S2140026B0804533D83B68DFF8B0801D4425F4FF65BD
S2140026C0D8F8000025F00705854209D9291A00F533
S2140026D00060FEF7FFFC00287FF477AFC8F80050D4
S2140026E03A682C49D9F80000FEF70CFDD9F80030FE
S2140026F03A682049054613442648C9F80030FFF7D3
S2140027007FFB002DA5D060E781245FE784245DE78A
S21400271080245BE7822459E7872457E7832455E71C
S214002720042B14D11F4C1323022163702046217002
S214002730FEF7D2FB1C4A1D4B128905329A801C4AB2
S2140027401A6062789A710024E1E60D24DFE606241A
S214002750DDE600BF280B00202E0B00200815002009
S214002760300B0020BC0D0020FC120020840100204D
S214002770340B0020F81200202C0B002091010020C2
S2140027802D0B00202808E10F280700200C1500203C
S214002790AC0D0020F80E002010000020C000002025
S2140027A07BD10000A00D0020800600208C0D0020AC
S2140027B0712E00000E4A1368A3F17E63A3F58433DE
S2140027C0B3F5605F10B50ED2EFF3108072B6094B0A
S2140027D0012419781C70FFF717FC39B91368BDE897
S2140027E01040DB6918474FF4817010BD0020FCE7ED
S2140027F02808E10F880D0020134A144C08B5937E74
S21400280043F040039376124B00221A70114B1B784C
S2140028104FF000556BB1FFF7CDFF0F4B2B60012338
S214002820A360236823F4E06343F480632360FEF729
S2140028303FFC2B600123A360236823F4E06343F48A
S21400284080632360FEF734FC8006002000500E40B4
S214002850DC0600209101002002020FF010B5134C98
S214002860A37E5B0621D4FFF72FFA2168A38C40F2E3
S214002870E24202FB0312226094F84F10A27A25204F
S2140028800A4492FBF0F100FB1122A2722289013267
S214002890228162680A2101FB03236360238B5A1E90
S2140028A0228313B90820FFF7A7FF10BD800600207B
S2140028B02DE9FF41294C40F601002189FEF7B6FAC2
S2140028C0A37E13F0400242D143F0010303F0FD0360
S2140028D062F38203224AA376136823B12189928881
S2140028E0914200D19847A37A1E4F1F48234493F87D
S2140028F02A306375FFF71AFAD4E900547B681B4A3E
S2140029005B7A64082E1B12F803800120FFF7EEF9AD
S21400291064350096002625446A460124414633461F
S214002920386802958DF804608DF80C608DF80D40BF
S2140029308DF80E6001F0C0FF224605463146386825
S21400294002F0D6FA35B1FFF789FFFFF7B1FF04B002
S214002950BDE8F081064B3B61F9E700BF800600202A
S2140029608C0D0020001300208C06002045A80000D7
S214002970D92A000002282DE9F0411FD002D80128EC
S21400298007D0FEE7032800F09C80FF2800F099801F
S214002990F7E74D4C637C980707D5FFF795F9FFF7E7
S2140029A0EFF9637C6FF341036374637C990701D48A
S2140029B0DA0764D4BDE8F041FFF7E2B94B784C681B
S2140029C0DB077ED5227802F00F07032F59D0052F9C
S2140029D077D13E498B7B03F00103B3EBD21F04F1A2
S2140029E008004CD10622083107F080FD80460028FA
S2140029F045D1FFF769F9FFF753F9354D41460646CD
S214002A005C22284607F061FDAB7E2F8343F020034F
S214002A10AB76627E237E43EA0223AB84627F237F0B
S214002A2043EA0223EB8494F82330C3F3040385F8C7
S214002A304F3094F82330C3F3421385F8503004F136
S214002A401E001B232B85FEF785FAD4F80E30E27C99
S214002A50EB60A37C2E6043EA0223227D607D43EA7E
S214002A6002432B61012795F84F30AB722F75E18A30
S214002A703944FEF75BFAFFF71BFF164B1F70BDE8E5
S214002A80F081124DAB7B03F00103B3EBD21F04F1D0
S214002A900800F4D1062205F1080107F027FD0028FA
S214002AA0EDD1094C286894F83D204FF400730232AB
S214002AB004F13C0102F0F4F9637C43F00203637412
S214002AC0DDE7FFF701F975E7DC00002000130020C2
S214002AD080060020DC06002002282DE9F7430F467A
S214002AE00BD003D8012800F0B281FEE7032800F0DF
S214002AF0B681FF2800F0B381F7E748784E68BB4DF3
S214002B0010F0010461D14FF0FF3140F60300FEF7EC
S214002B108DF92646AB7EB64C13F0200F12D0696DA9
S214002B206FF34513AB76002900F09F80237895F865
S214002B305820627043F003032370A01C07F0BAFC11
S214002B4000236B65AB48DFF8D082FEF7B7F9AA7EA4
S214002B502378003018BF012060F34102C2F3001151
S214002B60AA7661F38203C2F3C00262F3C30360F382
S214002B7004132370218840F60200FEF757F96278A6
S214002B809B49D8F8000002324FF40073D2B202F02C
S214002B9087F9AB7E7C68D90709D56FF30003AB765F
S214002BA000236B60FFF77CF82860FEF7A1F94EB1B2
S214002BB0237803F00303022B00F031816DD8012B3C
S214002BC000F02C8103B0BDE8F083318840F60300A6
S214002BD0FEF72CF93378A97E96F80080C3F300132D
S214002BE063F38201A976C8F3C003C1F300118B42D8
S214002BF006D108F00303022B05D019D8012B31D0DB
S214002C000026344615E0A146767896B17A48848A3E
S214002C10FEF754F9201A80B2B9F1000F04D002284A
S214002C2086BF023880B2002086428CBF0024012472
S214002C302646AB7EC8F38008C3F3C002904507D093
S214002C4082F0010262F3C303DBB243F02003AB76EB
S214002C50002C3FF45FAFAB7E81F0010161F30413FB
S214002C60AB7657E74FF00009CEE795F82830614875
S214002C70A21C0DF10701FEF71EFCC0B258B19DF86C
S214002C800730002B0CBF012202222378607062F30B
S214002C900103237056E70122F7E7A378022B65D0DD
S214002CA011D8002B4DD0012B38D0544A127822B1BF
S214002CB0162B7FD0182B00F08C805148072202700C
S214002CC04370022127E00C2B18D0142B56D0082B6B
S214002CD0EBD1B8F8201054F8035FC8B205EA00023A
S214002CE0474801F47F41044642EA0105092104F8F9
S214002CF0011B0023C0F8015063600CE040484FF011
S214002D00FF32037001234370827003710222002396
S214002D10C27043710621FEF7DFF853E7617A237A23
S214002D20384A43EA012393801346374943F8061B83
S214002D3054F8031FC2F80610A2889A80A2799A71E6
S214002D4040E7627B237B2F4943EA02238B800B46B6
S214002D502E4A43F8062B54F8032FC1F80620626863
S214002D605A6022891A81A27A9A722BE72A89254B01
S214002D7005329A80264A1A60E278E0E7B4F8053011
S214002D80B4F803201E48DB08934228BF13462B8561
S214002D90152300216FF004046FF027020370072349
S214002DA0817081714470C27003714471C271037284
S214002DB00921B0E72279E3781148134003F00303B2
S214002DC0022B18BF01231722027043708370032161
S214002DD0A1E76279A1790B4B42EA01229A800D4A5B
S214002DE01A60D4F80320C3F80620EBE6800600201D
S214002DF014170020680C0020500B0020800D0020C7
S214002E00A00D00208C0D00201120000025200000C1
S214002E10712E0000552000000013002000261248E6
S214002E20818AFEF74BF8081AA51C80B2647826B192
S214002E30022886BF023880B20020A3B283423FF643
S214002E40C1AE2A4631460848FEF7CAFABAE6074B2C
S214002E509B7E9A073FF5B6AE5B073FF5B3AEFFF72E
S214002E60FDFCFFF725FDADE6500B00208006002098
S214002E7008B5024B9879FFF7BFFC00BF8C0D002009
S214002E802DE9F04F012891B040F01A828A88002A76
S214002E9000F01882AB4B93F800A09846BAF1000FEA
S214002EA000F01282A84B1C781E465CB9A748029018
S214002EB005783DB9A64D28681718B7F5806F05D96F
S214002EC082241C70204611B0BDE8F08FDFF8A09277
S214002ED00968484407F0EEFABAF1020F2F603CD0BA
S214002EE0032FEFD99B4F3846FEF73AF93B78D9F8CF
S214002EF00020012B47D17B68190E012903D1C3F3AB
S214002F0007430A2B4CD9944B9A423FD1BB68DA034D
S214002F1044D5022388F80030FFF74CFC8F4B1A6824
S214002F20A2F17E63A3F58433B3F5605F0BD2126B18
S214002F30A2F17E63A3F58433B3F5605F03D2936892
S214002F4009A900209847864B099A1A60854B0A9A69
S214002F501A6098F80030022BB4D1834A1378082BF5
S214002F60904640F0BD8081482B6801687D4F03F095
S214002F70030A5A183F68A2EB0A02BA42814611D9E0
S214002F80832434709EE7744B9A4207D084233370B0
S214002F903378002B96D033701C4693E78623F6E7EB
S214002FA08823F8E76E4ADFF8D8B11768DBF8000028
S214002FB01F440F44A7EB0A0727F4FF6727F007070D
S214002FC0874209D9391A00F50060FEF783F808B180
S214002FD08524D6E7CBF800702968D9F80000A1EB65
S214002FE00A01FDF719F92A68D9F800305849A2EB0A
S214002FF00A02074613445E48C9F80030FEF700FF91
S214003000002FE5D198F80030002B7FF45BAF2B68DB
S2140030107F2B7FF657AF574FDFF84091386810BBCD
S214003020D9F80030A3F17E63A3F58433B3F5605F6F
S21400303014D20123CDE90A0009A88DF82430FEF742
S2140030408FF80A9BC3F307421B0E77D0012B01D1E2
S2140030500A2A73D9D9F800309B6B9847464B1860FC
S21400306007F03CFA3860444BD9F8002019683868F5
S214003070A2F17E63A3F58433B3F5605FA8D2936AAA
S21400308098470028A4D1D9F80030A3F17E63A3F5B1
S2140030908433B3F5605F21D201232A688DF8183097
S2140030A0CDE9070006A8D7F800B00392FEF758F857
S2140030B0079B190E12D00129039A03D1C3F30743C5
S2140030C00A2B0BD9D9F8003005A90091D3F834A003
S2140030D0274909AB5846D047002853D0842450E7E8
S2140030E0002B8FD021492B680A681A440A60214AAF
S2140030F010681A4A1168A1F17E62A2F58432B2F510
S214003100605F11D2CF6A1A4A1C49B84707462A6838
S2140031100F491748FEF774FE40F203239F4206D17C
S214003120029A01231370CDE640F20227EFE740F241
S21400313001239F423FF466AF802422E74FF4C0701D
S2140031408CE700BF2E0B00202D0B00202C0B002040
S214003150280B0020A8010020EB17A6032808E10F83
S214003160081500200C15002084010020340B0020D8
S21400317028070020480B00204C0B0020380B0020AE
S214003180FC1200209DF8243088F800300393FDF7E9
S2140031905BFF039B8246002853D0D0F834B0002B48
S2140031A03FF490AE002310AA0693042302F82D3DA8
S2140031B006A93520FEF768FF069BDB0753D598F86F
S2140031C00030082B3FD05B46BBF1000F3CD1BAF174
S2140031D0000F4BD1DFF810813C4BC8F80430D9F80B
S2140031E000203B4B38681968A2F17E63A3F5843350
S2140031F0B3F5605FBFF4ECAE936A984700287FF49F
S214003200E7AED9F8001038682B68A1F17E62A2F507
S2140032108432B2F5605F50D2CF6A2E4A4146B84734
S21400322007462A682C492B48FEF7EAFD40F203239E
S2140032309F423FF475AF40F201239F427FF47CAF7C
S21400324040E68346ABE7254B039310220CA903F117
S214003250280007F04BF920B9039B0A9A1B6A9A428A
S21400326001D889248DE6BAF1000F12D04FF4006120
S2140032705046FDF72FFF00287FF4AAAE2BF4FF6020
S2140032804FF4006120F00700FDF724FF00287FF4CC
S2140032909FAE98F80030082B9CD1114B114A186845
S2140032A020F4FF6323F007034FF400611360FDF77B
S2140032B011FF00287FF48CAE04E640F20227B0E748
S2140032C00024FFE50D24FDE58124FBE5191E000022
S2140032D04C0B002028070020280B002030A70000F9
S2140032E008150020FC120020380B00202DE9F341C1
S2140032F006460F469046072800F29180DFE800F069
S21400330004BF2621BA8F8F0E4FF400754FF48074D9
S21400331008230920002F00F0988086E001A8FEF719
S21400332029FE9DF80530012B06D94FF400454FF4D1
S21400333080440E230F20EDE79DF80430022BF4D8CE
S214003340FEE70124022500232046E3E7002979D082
S2140033504D4A536A13F0300F64D14C4BDB6B536A03
S214003360D90705D5536A23F0300343F010035362A0
S214003370042402230320464D434A2B4414669B0034
S2140033801A68002AFCD0B8F1000F48D00544AD00FA
S2140033902B68002BFCD0022E41D1002F3FD03A4B99
S2140033A05A6A12F0010F1A4641D04FF48062C3F8F1
S2140033B0A82020225A665A6A12F0300F0CBF4FF42B
S2140033C040024FF40002D3F8901032EA0101FAD11D
S2140033D0520201D5D3F8A0302B4E01220021022044
S2140033E0D6F89C70FFF782FFD6F89030726A294BA9
S2140033F022F0300242F010027262C7F30A07316B05
S214003400FA0903320F2A03EA010328BF0F223B43BF
S21400341043EA0273336334662B68002BFCD002B099
S214003420BDE8F0810424022303200027A3E7536AA3
S214003430D2F8903003F44003B3F5400FF8D1D2F839
S214003440A030C9E70825022303200F4A012115668C
S21400345001FA03F3D2F890101942FBD1B8F1000F2D
S214003460DDD00123084A03FA00F0D2F89030034278
S214003470FBD1D4E720251024042305204AE7802525
S21400348040240623072045E700400E4000300E404B
S2140034908004F21000F8FF0F0048704700F0490261
S2140034A000F00F000138072848D8DFE800F0040FC6
S2140034B01947232D4735244BD3F8943003F00703E0
S2140034C0023B052B3CD8214AD05C70471E4BD3F8F4
S2140034D0803003F00703013B042B33D81C4AF3E784
S2140034E0194BD3F8843003F00703013B042B29D88B
S2140034F0184AE9E7144BD3F8883003F00703013B7A
S214003500042B1FD8144ADFE70F4B1B6F13F0010F75
S21400351014BF0920072070470B4BD3F85C3103F02B
S2140035203003202B06D0302B06D0102B0CBF0720E4
S214003530012070470420704708207047002070471D
S214003540052070470120704700400E4081A600000D
S21400355087A600008CA6000087A60000FEE708B538
S214003560FDF7A6FD044B054A9A60D3F8882042F47E
S2140035707002C3F88820704700ED00E000000000ED
S2140035800D4AD2F8943003F00703023B032B0ED803
S214003590DFE803F0020F0F0B0848D2F80031C3F340
S2140035A004230133B0FBF3F070470548F5E7054800
S2140035B0F3E74FF40040F0E700400E4000F0490209
S2140035C060F59000C0EA2101154B1B685B0670B5DC
S2140035D004460E4622D4FCF763FF124B5B68C3F327
S2140035E0014398421AD0104BD3F80031FFF7C8FFBA
S2140035F0022C054602D12146FCF782FFC4F10202E6
S21400360010239340074A13610EB1FCF749FF2CB90B
S21400361021462846BDE87040FCF772BF70BD00BF6B
S2140036203C300E4000300E4000400E40094B1B68F8
S2140036305B0610B50C460BD420B9074BD3F8003107
S214003640FFF79EFF21460020BDE81040FFF7BCBFF5
S21400365010BD00BF3C300E4000400E4008B5FFF7DE
S2140036608FFF044BD3F80831C3F308230133B0FBB4
S214003670F3F008BD00400E401128F8B505460C468C
S21400368011D104290FD100216748674EFFF7CEFFFE
S21400369005F00F05013D072D67D8DFE805F0130696
S2140036A06266608766920026F2E7604D013C0C2C4D
S2140036B05BD8DFE804F0795B625A5A695A5A5A585E
S2140036C05A5A7200023C0A2C4FD8DFE804F04340F6
S2140036D0343A4E4E4E4E4E06460003200524012236
S2140036E01146FFF703FE524D4F482F6C41F67133DB
S2140036F02B640021FCF7E2FE0FB100232B640EB111
S214003700FCF7CEFE4B4B5C67FFF7A8FF0446FFF7BF
S21400371037FFFCF703FFFCF7C3FE474B596820460C
S214003720C1F30141FCF7ECFEFEB930460121BDE8CD
S214003730F840FFF77BBF4148FCF7F0FE0220044646
S214003740CDE73E48FCF7EAFE01240320C7E7012048
S2140037500324C4E700200424C1E70724C3E7384D48
S214003760A4E7384DA2E704232B60F8BD01221146DA
S2140037700020FFF7BBFD0223F6E7012211461046A4
S214003780FFF7B4FD0123EFE7FFF7FAFEFCF7C6FEEE
S2140037902D4B01221A600323E6E70122114607207B
S2140037A0FFF7A4FD0523DFE70023DDE7072C04D0A1
S2140037B0092CDAD11F4B012201E01E4B00221A67AA
S2140037C0D3E7013C072CD0D801A353F824F000BF60
S2140037D0233800006B3700006B37000015380000F8
S2140037E06B3700006B37000007380000F137000029
S2140037F003221049D1F85C3123F0300343EA021368
S214003800C1F85C31B1E7012211460420FFF76EFDD6
S2140038100122EEE7012211460220FFF767FD022291
S214003820E7E70022E5E700BF00F0490280400E40CF
S21400383000000E4000400E4000300E400148E801F7
S21400384088400E4084400E400816C84338B5C0F382
S2140038500323013B04460D46092B1AD8DFE803F084
S21400386031211A19052427192A2E174B0022C4F3D2
S214003870043442B11548D0F84411C90703D4D0F82F
S21400388040110A42FBD103F1047304EBC3039B000F
S2140038901D6038BDFFF7E2FEFCF740FE00220C4B31
S2140038A0E5E700220B4BE2E701220B4BDFE7102295
S2140038B00A4BDCE74FF48032094BD8E70022094B6D
S2140038C0D5E70022014BD2E7B0400E4000400E4044
S2140038D0B8400E40C0400E40E0400E40E8400E406B
S2140038E0F0400E4050410E402DE980480F4B5B687B
S2140038F05805ABB01CD44FF0005300221A6022A823
S214003900FDF72EFCFDF7A0FBC8B1446BFEF752FF97
S214003910249B590740F18781FDF796FBFDF710FCC5
S2140039200446FEF7A7FD54B1BBE100BF00500E40B1
S2140039304FF000531A68022ADDD100221A60BFF346
S2140039404F8FBFF36F8FBA4ABA49536ABA4FBB4D0F
S21400395023F4803353629032536823F0010353609C
S214003960086890604FF00053D360441CB44B13615A
S214003970AF420C604ED07E1E731B43EA530343EAED
S214003980930343EA131343EA132343EA134301332F
S214003990B3F5807F38BF4FF48073C3F1000C0CEA98
S2140039A0050C03EB0C0E774500F28C815FEAD3081A
S2140039B0AEEB07074FF0010E08BF4FF02008B7FB2D
S2140039C0F8F70EFA07F7013FB3FA83F3FFB2A6EB58
S2140039D00C06C3F11E03B6FBF8F6764407FA06F6A5
S2140039E003FA0EF3A5EB0C07B7FBF8F70EFA07F78A
S2140039F0013F03F03E03374343F0407307F0FF07F1
S214003A0043F0011343EA072302309460C2F80CC067
S214003A1013610860BFF34F8FBFF36F8F05235360AA
S214003A20834A536A43F480335362BFF34F8FBFF326
S214003A306F8F844B01225A641A6822AF42F4807258
S214003A401A603846FEF796FA9DF88930012B03D89F
S214003A509DF88830022B09D97B4B4FF418721A60F8
S214003A607A4A5A607A4A5A667A4ADA667A4A7B4EBE
S214003A70136843F4F8431360794B02229A639A6BF7
S214003A8002F00F02022A40F02581DA6C22F0405242
S214003A9022F0010242F00102DA64D3F8E02042F498
S214003AA04072C3F8E0206F4A0F211180DA6E42F0B0
S214003AB08072DA666C4B186800B10420FEF78EFA46
S214003AC06A4B674DC8221A80694BA0220F2000243B
S214003AD01A80FCF731FC674BAB65CDE91A4422949B
S214003AE07C60D6F86831C3F30722DBB224921C93BD
S214003AF0EB6CC3F3017A2246534639461AA8FCF704
S214003B0083FCD5F8E030C3F3012922464B4623A9AF
S214003B101BA8FCF779FCDDF890C01C9A1A9D229829
S214003B20DDF86C80ACEB02014FF416735943B1FB21
S214003B30F3F32146239CD2184FF4167BA0EB050323
S214003B4028BF01210BFB03F3B3FBFBF3ED18A4EB3B
S214003B5008032CBF4FF0010E4FF0000E0BFB03F3D3
S214003B60B3FBFBF318EB03082CBF0123002394459B
S214003B70C0F0B080002940F0AD804445C0F0AA8077
S214003B80002B40F0A780A842C0F0A480BEF1000F32
S214003B9040F0A080324CE36D23F4FE4323F0020392
S214003BA043EA0223E3655046FCF796FB002800F044
S214003BB0918001214846FCF78FFB002800F08A80A0
S214003BC0636E454538BF4546E72D23F4FF7328BF8F
S214003BD0E72523F0010343EA45036366E36B43F4FA
S214003BE08063E3634AF6E853606B636321462346CB
S214003BF09A6FD207FCD41B6C1F4A13F0030365D0E0
S214003C00012313608B6FDB07FCD40B6C23F00303DC
S214003C100B6413498B6F13F00103FBD1012813606B
S214003C2008BF4B6353E04CBBFEF724FC87E600BF9F
S214003C3000ED00E0A4140020B8000020B80000202A
S214003C403900011300000E408C420E409A6F0500AA
S214003C501801000400843208A4310E40B081E00F41
S214003C6000300E40F40600208009C643F606002009
S214003C70F8060020372110B7B40AC643FDF79CF9B2
S214003C808442D1D2FDF798F904F140038342CBD8A1
S214003C902046FDF7B9F90028C6D063696BB9FEF770
S214003CA0E9FBFDF7D1F90446FDF7CEF9064B98601F
S214003CB023689D466368984741E69DF88830012B47
S214003CC0EDD129E65B0068E600ED00E01360C64B28
S214003CD001221A60C54CDFF880A3DFF8809311201C
S214003CE0FFF7DEFB012200210220FFF7FFFA636ADE
S214003CF023F001036362BE4B00251D60A36A23F018
S214003D00070343F00603A362BA4BE362226BBA4B87
S214003D1002F07F6213432363B84B636304211120D0
S214003D20FFF7AAFCDAF80030636A0121484643F040
S214003D304058FFF77BFCFCF7B3FBDAF80410484664
S214003D40C1F30141FCF7DCFBD4F80001C0F304200A
S214003D500130B9FBF0F0FCF7E1FB0122114602202E
S214003D60FFF7C4FAC4F82480D4F8C83043F001033F
S214003D70C4F8C830B36AA24E2AAA0424B36509A9B7
S214003D8002F88C4D35200995FEF77EF906238DF84E
S214003D901B30099B8DF81A4013F4803F994D0BACED
S214003DA000F06282B36D8DF82C30B36D8DF82D3037
S214003DB0B36D8DF82E30B36D8DF82F30B36D8DF852
S214003DC03030B36D63F03F038DF831309DF83230FC
S214003DD043F001038DF832306C608B4B8B4A9A604F
S214003DE000264FF48071C3E900221E825961884A7A
S214003DF0884BDFF86C829A60C3E900225961202262
S214003E00314638461E8206F060FBFC2208238DF8F9
S214003E108B20814A8DF8893023928DF8993040F2B4
S214003E200172F823ADF892208DF89B307B4A7C4BCC
S214003E3025924FF00109384627938DF8909000F0B0
S214003E4077FC7848784B03603146784B436000F047
S214003E50EBFC63A3D3E90023C8F80000CDE90023F8
S214003E604FF0FF334FF0FF3200F0BAFF02224FF060
S214003E70FF31D8F800006E4C00F0BCFF6D4B22936B
S214003E80394603F50033D8F800002496239300F053
S214003E9083FD2146D8F80000267000F0D6FF46467F
S214003EA030B12146D8F8000084F8009000F0CDFF2D
S214003EB03068DFF8B0A101F059F82178B5F9002094
S214003EC0306800F045FC0146306800F0A8FF6C68DA
S214003ED0002C40F0E3815046FCF792FFB37B64F37E
S214003EE00003B373544B554C554DDFF87C814FF0AF
S214003EF0200983F801935A2283F80493002183F85B
S214003F00069304F10A0083F8079383F8059383F871
S214003F10089383F81D9306F0D8FA42F21073E36014
S214003F20484B4FF49072C4E9005332842523464A26
S214003F30637201231370454D23720022C8F80020D7
S214003F401B222A802AAA0DF1190102F8903D3E2074
S214003F50FEF79AF82AAA112302F8913D15A93620F1
S214003F60FEF792F82AAA394602F8929D3920FEF703
S214003F708BF800287AD1364B9DF8172018681B79E5
S214003F8022903B71002A00F092811B2A28BF1B2238
S214003F90531D8DF8163015A9531C0DF18D008DF8A4
S214003FA08B3006F087FA1AA8FCF72AFF294A9DF8F4
S214003FB016301288FA522AA99A1C51FA82F2002167
S214003FC002F8201C1A98BDF86C1042F81F0C093332
S214003FD022F81B1C8DF8163048E000BFAFF30080B7
S214003FE008558028000000009407C64300400E4095
S214003FF0A004C8432000050007450BD047A00200D8
S2140040000050084094010020680C0020800C00201E
S214004010680B0020500B0020A0A6000092A600000F
S214004020E4A6000030130020C51B00002413002067
S214004030120000203C00940000E100E0DC000020BC
S214004040D6BE898E55555500800D0020860100206D
S21400405098A70000A2A7000000300E4000F049021A
S2140040600013002008130020B80300202AAA2023EB
S21400407002F8933D1AA93A20FEF706F848B9B84B5D
S2140040801A889B788DF86A300323ADF868208DF87F
S2140040901530B44BB44800224FF00209C3E90022A1
S2140040A0B24B036080F80490FCF7A6F8B048B14B1A
S2140040B0036080F8049010230372FDF7F5F8AE480D
S2140040C0AE4B0360AE4B80F80490C36080F8089057
S2140040D0A0F81090CDE900394B4690E80600143061
S2140040E0FCF766F89DF81710002900F0EE8015A87A
S2140040F0FDF704F9A348A44B03604FF0100980F8BD
S2140041000490FCF779F8A148A14AA24B03604FF649
S214004110FE7B0823C260A0F810B080F804900372FB
S2140041200393FDF7C1F89C489C4A02600C22027279
S2140041309B4AC260A0F810B080F80490FDF7B4F86F
S2140041409848994A039B02604FF0020B974A80F802
S2140041500490C260038280F808B0FDF7A5F8944882
S214004160944B0360944BC36080F804900123038251
S21400417080F808B0FDF798F89048914B0360914B93
S214004180C3604FF6FE73038280F8049080F808B090
S214004190FDF78AF88C488D4B03608D4BC3604FF655
S2140041A0FE73038280F8049080F808B0FDF77CF870
S2140041B0884B6C4A1A604FF6FF729A809DF816205C
S2140041C0202A05D8931D63753946834806F072F990
S2140041D09DF81520202A06D8931D84F83D301AA98C
S2140041E07E4806F067F9FDF76FFD227C637C002AA7
S2140041F06ED143F001036374237D62F30303B27B45
S21400420002F0010262F386132375637D0BB9062361
S2140042106375734BBAF80410B068C4F8160099803A
S21400422094F83C30042161F3030362F3861384F8A8
S2140042303C3094F83D3013B9062384F83D30694B82
S214004240B068BAF80420C4F83E009A80FDF798FDDE
S214004250654C664B1B78002B7BD1654A136923F0AF
S2140042600403136130BFF4E70DF11B0221462C2036
S214004270FDF70AFF00283FF4B0AD0DF11A0208A9B9
S2140042803C20FDF701FF9DF8323020B19DF820203C
S21400429062F300039EE560F300039BE52068B060D0
S2140042A0A288A3798AF80630AAF804201AE608231A
S2140042B08DF8163004238DF88B304E4B1A889B7879
S2140042C0ADF88D208DF88F306DE6032149480FE755
S2140042D06FF300038FE7EFF3108672B600231A46DB
S2140042E00DF11D014448FDF7E6F83046FDF78CFE5B
S2140042F09DF81D3013B10023C8F80030D8F8002010
S214004300EFF3108672B6C2F501739BB222440DF12C
S2140043101D013948FDF7CFF803463046FDF774FE19
S214004320D8F8000018440328C8F8000011D9B4F8DB
S214004330009009F1040398420BD307D8608804283C
S2140043404FF000075AD0062800F0C8810023C8F8AE
S21400435000302948FCF7B2FD0028BCD17DE700BF3D
S2140043606AA60000E0060020C8140020A5A70000EA
S21400437020050020A8A70000FC060020ABA7000030
S2140043806EA60000E8140020AEA700007805002006
S214004390B9240000BFA70000D0050020D0A7000069
S2140043A0812E000018040020E1A7000028A70000C6
S2140043B028060020F2A7000044A800007004002091
S2140043C003A80000B9110000C003002014A80000D4
S2140043D00D150000E8060020F8000020200100204F
S2140043E0F20000201A010020B4010020DC060020A4
S2140043F000ED00E09EA70000500B002022796F80A1
S21400440009F1FF33082A9BB200F0DF801BD8042A8C
S214004410B74E39D0062A4ED0022A1AD1022B40F0C7
S2140044205981B4F805700022B7F5007F28BF4FF415
S21400443000770323114602203370A6F80170FEF7BA
S21400444005F82F8082E7102A00F0F48003D80A2AA5
S21400445070D0062294E0122A00F09B80522AF8D1EF
S214004460B4F80500FCF7B8FE00283FF46FAF037BF6
S2140044705B077FF56BAFA9F1030292B29D49B4F8D2
S2140044800500FCF7F7FE61E7042B79D1B4F8057058
S214004490B8B2FCF7A1FE58B1027A41687780022ACA
S2140044A00CBF0123022305203070737003205FE0E9
S2140044B06F800A2264E0DFF840B2B4F80500B4F872
S2140044C00710CDF844B04FF00203A9F107028DF8AB
S2140044D0483092B20BF102030093019211AB0CCB61
S2140044E0FDF72EFB4FF6FF7A5045814604D16368F0
S2140044F0C3F30F236B80DCE7CDE900774FF00203B0
S2140045008DF83830CDF834B001300DAB0CCB5146B9
S21400451080B2FDF715FB50451CBF00F1FF3080B29E
S21400452007233370A6F80190A6F803000022114670
S21400453004201DE0022B40F0CD80B4F80500FCF707
S2140045404BFE00283DD0037B990714D52B882AAA5A
S214004550013B22F8803D11A9B4F80500FCF764FE83
S214004560024648B9624BBDF828200B2119701199F4
S214004570FDF76CFFEAE602226368C3F30F236B8045
S2140045805B4B20796988587001261E7059801A7115
S214004590CCE7B4F80500FCF71FFE90B1037B1A07C2
S2140045A011D5A9F1030292B25249B4F80500FCF7FE
S2140045B061FE02460028DFD14D4B132119700146DB
S2140045C0D6E70122D8E70322D6E7A9F1050B1FFAA2
S2140045D08BFBBBF1020F02D0BBF1100F7CD1464B18
S2140045E0B4F80500B4F8071011930023CDE90033A2
S2140045F08DF848B011AB0CCBFDF7A2FA4FF6FF735F
S214004600984206463FF473AF2B882AAA043B22F84A
S2140046108A3D0AA9FCF708FE024608B16E80AFE79D
S214004620334BBDF81E205E8009211970911C59700D
S2140046300A993BE7A9F1050B1FFA8BFBBBF1020FAA
S21400464002D0BBF1100F47D10027B4F80500B4F82C
S2140046500710DFF8A4A0CDF844A0CDE900775FFAF4
S2140046608BFB8DF848B011AB0CCBFDF769FA4FF613
S214004670FF79484506463FF43AAFCDE90077CDF8D6
S2140046803CA08DF840B001300FAB0CCB494680B251
S214004690FDF756FA2B882AAA4845A3F106030746D3
S2140046A022F88A3D18BF00F1FF370AA9304618BF26
S2140046B0BFB2FCF7B9FD02460028AFD10C4BBDF8DF
S2140046C01E205E8011211970111D59709F800A9955
S2140046D005204DE7042253E7024651E7074B1193A6
S2140046E011A90223CDE913771293FDF787FE2DE675
S2140046F08A010020BB010020BD0100201000002020
S214004700FEE7000008B5FEF72DFF064B0649074AF0
S2140047108B4201D3FBF712FD52F8040F43F8040B4B
S214004720F6E700BF10000020C000002038C90000D7
S21400473038B5044600F09FFB0FCC044D0FC594E837
S2140047400F0085E80F00002038BD00BF14180020B9
S21400475047F6FF739A42F0B560D0022960D8314B15
S214004760CE00981913F831108578012DB8BF0125B1
S214004770012919460DD1C3785B1B23B1416831F975
S2140047801310914202DC5819C0B2F0BD013B1BB2B7
S214004790F3E740680028F8D0B0F90030934204DB15
S2140047A0B0F902309342B8BF13468288FF2A03BF8F
S2140047B0B0F90640B0F90870012200221CBFC824D8
S2140047C02827E41A94FBF7F414448A1924B256787E
S2140047D0721EA242A8BF22464FF47A7700EBC201AF
S2140047E00132CC88896812B213FB041121EAE17108
S2140047F0B24201F5FA71B1FBF7F104DA00EBC2043C
S214004800A4888C42EAD200EBC20232F8040C88423A
S21400481028BF0846A84238BF2846B5E7FF20B4E7B9
S2140048200020B2E71418002070B50E46044678B192
S214004830084D2B7863B9084B186000F07FF83146B6
S214004840204600F06BF8031C18BF01232B7070BDC8
S2140048500020FCE7381800203418002008461146CF
S21400486000F080B82DE9F843124D04460F469946ED
S21400487001216B680020904698470646C4B104F1B3
S2140048800C004B464246394604F0DAF8044618B99E
S2140048902B680120984704463EB100F0ABFB00B9F8
S2140048A01CB100216B68084698472046BDE8F8838F
S2140048B02046E6E7240000202DE9F041114D04468D
S2140048C00F466B6801210020904698470646BCB10B
S2140048D004F10C004246394600F090FA044618B936
S2140048E02B680120984704463EB100F083FB00B9D0
S2140048F01CB100216B68084698472046BDE8F08149
S2140049002046E7E7240000207047431E012B03D90A
S214004910031F5842584170470120704738B5044677
S2140049200D46002100F079FA2946204603F008FFDC
S21400493000280CBF2046002038BD000010B50446F5
S21400494003F074FA44B1054AD4F88430002B08BF4B
S2140049501346034A136010BDA36FFFDE094900002B
S2140049601800002010B50C4603F080FA1CB103F0C6
S214004970DBFA0128FBD1034B00215B680320BDE86E
S214004980104018472400002000B10C3003F006BB8E
S21400499000B10C3003F01ABB0B8810B43BB143F2E5
S2140049A0C822934228BF1346642B38BF64230B806B
S2140049B04B883BB143F2C822934228BF1346642B70
S2140049C038BF64234B808B883BB143F2C8229342A6
S2140049D028BF1346642B38BF64238B80CB883BB13B
S2140049E043F2C822934228BF1346642B38BF642381
S2140049F00A89CB8043F2C8244B89A24228BF2246AC
S214004A00A34228BF23460A814B8100B10C305DF8D3
S214004A10044B03F003BF00002DE9F04FDFF894A12C
S214004A20614E85B0044600911746994604F0EEF8AC
S214004A30BAF8005004F0F4F800287DD1236F3268ED
S214004A4093425ED003F070FA012839D1DFF868B1DE
S214004A50E26EDBF80030206F002B72D0934273D0EA
S214004A601D68116802680DB18D4279D0204603F0AA
S214004A70CDFD0023054601270193D4F880808DF8EC
S214004A800F90B8F1000F77D0002211460DF10F03FA
S214004A902046C0477DB9D4E91B233360019BCBF881
S214004AA000200BB9002F42D0009BCAF800302046E9
S214004AB003F0ACFB054687B9284605B0BDE8F08F85
S214004AC0012003F0D3F903F02FFA0128FBD1374B6E
S214004AD000215B6803209847B8E7B5FA85F04009DF
S214004AE0332100F021FA4946204603F09BFD304B67
S214004AF0216F1B68A4F10C009847284605B0BDE856
S214004B00F08F002B9ED0009B9D429BD1B9F1000FE9
S214004B100DD067B1D4F8805001228DF80E20002DFC
S214004B2037D00022204611460DF10E03A847002577
S214004B30284605B0BDE8F08F0023336004F068F81F
S214004B407CE71168026891E73168002988D08142C5
S214004B5086D1009BEB1A18BF0123019300258CE732
S214004B60316811B10968914201D059687EE7002387
S214004B7001931D46012780E7617994F8B530994284
S214004B8028BF19464A46204603F0EEFA002D92D179
S214004B9081E7617994F8B530994228BF19462046D6
S214004BA003F0E2FA88E700BF441800202400002043
S214004BB0180000203C180020401800202DE9F04F77
S214004BC0804683B00E46FDF7D1F9D8F8703082469D
S214004BD01BB1B8F80830B3424FD0D8F86C70002F2D
S214004BE059D0BC68002C56D0F968002953D0D8F8A4
S214004BF080300193002B56D04FF00009CC464D462E
S214004C00A8F10C0B00E0BC68C5EBC50204EB8204FF
S214004C100135E289B24216D8228AB242584612D3E9
S214004C20B4F91210B8F9F0C08C4501EAE17218DD4B
S214004C3098F8AC10FFF78CFD98F805208242814664
S214004C400FD9F968A4468D42DDD3BCF1000F07D119
S214004C505046FDF7D9F90124204603B0BDE8F08F91
S214004C6064460023194622464046019DA847A8F8F8
S214004C700860C8F8704088F8B590002331461A4698
S214004C804046FFF7C9FE04465046FDF7BDF92046EC
S214004C9003B0BDE8F08F5046FDF7B6F90324204672
S214004CA003B0BDE8F08F994618461D4647F6FF7BD1
S214004CB0A8F10C030EE098F8AC10FFF749FD98F841
S214004CC0052082428146D2D9F968019B2046A94236
S214004CD016D9BC68C5EBC50204EB82040135E2892F
S214004CE0B242F4D8228AB242F1D3B4F91210019338
S214004CF05945184601EAE172DDD14FF0FF09B6E7E3
S214004D000028A5D00446B2E7F8B50D1C18BF01254B
S214004D100E4607461F21284600F006F900243046B6
S214004D2000F091F91F21284687F8B840C7E91B64B0
S214004D3000F0FAF8F1684FF6FF721C20E3B28B42DF
S214004D400BD315460A4A002313600A4A29463846FA
S214004D501360FFF733FF2846F8BDB56800FB035322
S214004D60DD89954202D2002DECD02A460134E5E7D3
S214004D704018002044180020008970470A7838B58B
S214004D8005461046FFF7C1FD60B14C782046FFF798
S214004D90BCFD38B12243530704D42846BDE838404A
S214004DA003F048B9012038BD00B10C30FFF7E6BF6C
S214004DB010B504460878FFF7A8FD58B14A781046A3
S214004DC0FFF7A3FD30B1042A04D02046BDE810400A
S214004DD003F05AB9012010BD00B10C30FFF7E8BF50
S214004DE030B4DDE9024500B10C30CDE9024530BCF7
S214004DF002F0C8BF00B10C3003F0C5B870B5044669
S214004E000D461646FFF7DAFE30B9324629462046EA
S214004E10BDE8704003F0B4B870BD03F009BF38B504
S214004E20044600200D4600F00CF94CB1D4F88C3046
S214004E304BB9294604F10C00BDE8384003F0B3B97D
S214004E40D4F88030FFDE022038BD38B504464888E6
S214004E500D4600F0F6F84CB1D4F88C304BB9294624
S214004E6004F10C00BDE8384003F03CB9D4F88030BB
S214004E70FFDE022038BD00F0E5B838B505460C4622
S214004E80FDF774F8A9696B690C4023436B61FDF765
S214004E90BBF800200CB9002138BD4FF48071FBE749
S214004EA000B10C3003F04FBB00B10C3003F065BB13
S214004EB007B502AA4FF4007322F8023D0749FFF730
S214004EC0F3FFBDF80630B3F5007F05D1022808BF12
S214004ED0002003B05DF804FB0120FAE74818002024
S214004EE00846114603F03CBA00B10C3003F016BB7E
S214004EF038B5154658B100F10C0411B1204603F040
S214004F0057FB35B12046BDE8384003F053BB044696
S214004F10F3E738BD024B1960024B1860FEE700BF8E
S214004F201C0000202000002008B528B9034B19609B
S214004F30034B1868FFF7EEFF08BD00BF1C000020FB
S214004F4034180020034618B15B7B0C3013B10847B9
S214004F505B78FFDE0220704710B5044603F0D8FEEB
S214004F6020460321BDE8104002F06CBF00B10C30B3
S214004F70FFF7F2BF0149FFF7E5BF00BFE98C00006D
S214004F800149FFF7DFBF00BFC18C000070B5437852
S214004F9006460C46B3B103F02BFF61680246054691
S214004FA0304603F0BEFE206890FAA0F0000A03F038
S214004FB097F8A17A20892A4681F0010103F0E2FEE3
S214004FC0002070BD0220FCE71FB500B10C30CDE913
S214004FD00112ADF80C3001A99DF818308DF80E308E
S214004FE0FFF7D4FF05B05DF804FB002070470020F3
S214004FF070470000014B1878704700BF481A002021
S214005000431C08D0044AD2F83C311B0C1B0480B267
S2140050100343C2F83C3170470040084010B50446D0
S2140050200868FFF7EDFF236F4BB15B693BB10A6879
S214005030013204BF6FF001020A600A681A6000209D
S21400504010BD7047704731210120FFF76DBF38B59E
S2140050500D46044600F056FFAC4042F2107164095B
S2140050604C436423B0FBF3F0B4FBF0F038BD000013
S214005070034B1A6802609B8883800020704700BF3D
S214005080320000200F4B0228D3F8883104D183F475
S2140050900010C0F340507047012805D113F4400FAC
S2140050A00CBF01200020704748B9074A506A10F02C
S2140050B0010005D083F48000C0F3805070470020C4
S2140050C0704700BF00400E40B081E00F0B4B5B887E
S2140050D0B3F5E16F95BFC8235A2378225022984231
S2140050E08CBF172310230B70054B1B7823B19042FF
S2140050F094BF0020012070471846704732000020F9
S2140051003000002037B51E4B1B78032B044634D0E6
S2140051100DF10701FFF7DAFF1E2C8CBF19491A495B
S2140051209DF807204FF001030B608CBF012400247C
S214005130164950B1164B4DF601751D60120203F16B
S214005140007342F440421A608A810A7C22F001020F
S214005150024322F0020242EA4402D3B20D4A0B7422
S214005160127852B923F0040343EA800323F00803BD
S2140051708A89CA8143EAC4030B7403B030BD00BFFA
S214005180320000200841084608410844D81F002184
S214005190044108444B1A00200A4B0B4AD3F88831C6
S2140051A0DB4303F4FE1343F40053B3FA83F3C3F173
S2140051B0FF2303F57F03F233C3EB4313013B137066
S2140051C0704700BF00400E403A000020012804D07F
S2140051D008D3022803D00020704707207047044BEE
S2140051E018787047024B18780430C0B2704700BF7A
S2140051F03A00002030B51F234FF0FF34B0FBF3F326
S2140052005D1CC3EB4313AC40C01AE443C0B2E4B227
S21400521001301460086030BD2DE9F3411646404A5F
S214005220404C1268404F14403A78012A054688469A
S2140052301AD144EA006488F80000002333607B88B3
S214005240B3F5E16F8CBF5A23C82324F47F549D42E4
S21400525024F008049ABF200A00F47F5043F6C87072
S214005260204302B0BDE8F081304A1278904228BF51
S2140052701546002B14BF042300232B440B70002D6F
S2140052802FD12B4B33606A46284601A9FFF7B2FFA1
S214005290009A284B01981B7898F800C044EA82349C
S2140052A044F47F5444F0080444EA0064FBB1224905
S2140052B03878224BB2FA82F2C2F11F02022818BFD7
S2140052C00B46511C17D09B5CD8B2316821F07F4347
S2140052D03360BCF1000F10D143F0306343F0040399
S2140052E0ACE74FF03063013D3360EDB2CBE7FF2013
S2140052F04FF0FF32E9E7FF20E7E7013203D0421E16
S214005300D2B2FD2A06D921F07F4323F0040343F0EE
S2140053107F4393E743F0040343EA00638EE700BF4E
S214005320D81F00213F00C0E0320000203A000020D5
S2140053300400000B4E1A0020B883E00FB083E00F85
S214005340F7B50446C820FFF7DDFE284B284D1B782E
S214005350032B01D0FF2C03D1FF20287003B0F0BD33
S214005360012B28D1072C204628BF072001284FF004
S214005370000301AA0DF1030138BF0120FFF74CFF1F
S21400538006461C4B1C4C019AC3F8582126609DF813
S21400539003002870FFF7B6FE019A130203F4E063D9
S2140053A043EA1263154A238112780AB9666063815C
S2140053B09DF80300D2E78BB9042C11D81F46184677
S2140053C0201A01AA0DF10301C0B2FFF725FF4FF422
S2140053D08003064647B10A4A1360D2E70023EDE78A
S2140053E001231F460420EBE7064AF5E732000020BB
S2140053F03100002000400840D81F00214B1A002032
S214005400084108460841084408B500F0DBFF094B90
S214005410094A002814BF18461046036823F47F1272
S2140054205B0803F4FE1313430360044B4FF0007253
S214005430DA6108BD004108401841084000400840B5
S21400544008B500F0BFFF4FF4001330B1044A1360F4
S214005450044B4FF000621A6008BD034AF7E700BF2E
S214005460004108442040084418410844014B18688D
S214005470704700BF501A002070B505460E46C0B2F1
S21400548001F00F01FFF7E3FDC6F303110446C5F371
S2140054900720FFF7DCFDC6F303210444C5F30740ED
S2140054A0FFF7D5FD204470BD444B1B682DE9F0473F
S2140054B0D0F80061DFF82091DFF82081404F03F438
S2140054C0E073A3F5C072002E08BF01268246504244
S2140054D050413C4A1168B1423B4911D10C78844294
S2140054E00ED19AF8AC5099F80040A54208D19AF827
S2140054F0065098F80040A54202D1B888BDE8F0876B
S214005500B3F5C07F1660087054D09AF8AC30022B02
S21400551047D12E4B1B78002B14BFC82496240F218E
S2140055202046FFF794FDB6FA86F3B0FA80F29B1A8F
S214005530002BC4BFC3F10F05D840254BD8BF0F259D
S21400554086424FEA0440C3F8BC0003F1806303F1CF
S214005550B80340F6FF7238BF05F1FF351A6003F155
S214005560007329021960FFF787FFB88000F0CAFCB5
S21400557005F01F054FF4FA73AC405C4341F66A032E
S214005580B0FBF3F0134BB4FBF0F40A2044431C606A
S2140055909AF8AC3089F800309AF8063088F800306F
S2140055A0ABE7012B08D0094B1B78002B14BFF02467
S2140055B0B424B4E70024B2E73224B0E71860084009
S2140055C0320000202C000020491A00204E1A00202D
S2140055D000600840501A00203900002038000020E3
S2140055E0FF290BD00D4B0E4818600B04090503F479
S2140055F0E02301F0F87119430A4B1960FF2A0BD01B
S214005600064B40F2F7111960130103F4F87302F029
S21400561007021A43034B1A60704700BF5041084404
S2140056200000F70150410846F8B5144B1C6804B159
S2140056300C34204600F0B6FE114E124F3278C5B23A
S214005640AA4201D13B78A3B1092D13D80E4B012DE8
S214005650595D05D10D4B1B78012B01D141F040015E
S21400566001F00F0220460909FFF7BAFF0023357044
S2140056703B70F8BD0025FA21F2E700BF3418002081
S2140056804C1A00204D1A002080A80000320000208E
S21400569070B52C4D2C4C064600F002FC002114225E
S2140056A0284604F012FF327823789B1A274A18BF40
S2140056B00123137033682360B388A380C820FFF7E4
S2140056C021FD234B2A68FF211970224B13402278B4
S2140056D0022A18D1204A4FF4EE41116002F10072FE
S2140056E04FF48A41116043F08043012142F8041CC4
S2140056F02B601A4B03221A60FFF796FF184B012205
S2140057001A70002070BD012A16481749174A4FF034
S214005710070409D10460062008601549116043F0AB
S21400572003034FF44041E1E7046005200860C02110
S2140057301160104A43F08043812143F00403116056
S214005740D6E700BFD81F0021320000204D1A0020E7
S214005750310000202800C0A02441084458410844D5
S2140057604A1A00200C4108440C41084608410844E7
S214005770C1004000084108462DE9F84F2F4F304B36
S2140057803B6000F0BFFB4FF4FA734FF47A76DFF815
S214005790C880B0FBF6F56B434FEA032A4FEA136B5B
S2140057A01AEB08004FF000094FF00003254A4BEBB8
S2140057B0090104F0D9F8A0F580730446BB6218B955
S2140057C02B21FFF7B1FB012406FB04F20027560845
S2140057D04FEA0528B8193B4648F1000104F0C4F822
S2140057E0194B1960194B4FEA046881468A461860BF
S2140057F0240A25B928462B21FFF796FB01254FF4EE
S2140058007A73A8FB036703FB04776C08301947F12B
S21400581000012A46002304F0A7F80D4B074A19603A
S2140058200C4B19F1020618604AF10007B30843EA68
S2140058308773013B1363BDE8F88F00BF0050084034
S2140058400211010040420F00601A00205C1A00207E
S214005850581A0020541A002020A10700044B4FF0CD
S2140058600052C3F880211A60024B01225A6070472A
S21400587000E100E000500840054B020113440122FD
S2140058801A604FF4807303FA00F0024B58667047B4
S21400589000510844005008402DE9F047144684B0F3
S2140058A005460E469A46FCF761FB022C00F0C680C1
S2140058B00746FCF7A5FB7D4B7D497E4AD3F818804A
S2140058C091F8159012685FFA89F91AB1D3F8188022
